:020000040800F2
:10000000FCFF002075120000591200005912000078
:100010005912000059120000591200005912000034
:100020005912000059120000591200005912000024
:100030005912000059120000591200005912000014
:100040005912000059120000591200005912000004
:1000500059120000591200005912000059120000F4
:1000600059120000591200005912000059120000E4
:1000700059120000591200005912000059120000D4
:1000800059120000591200005912000059120000C4
:1000900059120000591200005912000059120000B4
:1000A00059120000591200005912000059120000A4
:1000B0005912000059120000591200005912000094
:1000C0005912000059120000591200005912000084
:1000D0005912000059120000591200005912000074
:1000E0005912000059120000591200005912000064
:1000F0005912000059120000591200005912000054
:100100005912000059120000591200005912000043
:100110005912000059120000591200005912000033
:100120005912000059120000591200005912000023
:100130005912000059120000591200005912000013
:100140005912000059120000591200005912000003
:1001500001480068704700BF5C00002083B0CDF804
:1001600000E000F0FF031A09104603F00F021346E7
:1001700014E0194A02921FE0184A02921CE0184A41
:10018000029219E0174A029216E0174A029213E00F
:10019000164A029210E0164A02920DE00028E8D0BA
:1001A0000128E9D00228EAD00328EBD00428ECD0BB
:1001B0000528EDD00628EED0012212B29A40ADF803
:1001C000042002980A46BDF8041000F035F9DDF865
:1001D00000E003B0704700BF00080140000C014080
:1001E000001001400014014000180140001C0140B3
:1001F0000020014081B0194900EA010108460022AF
:100200000EE0042022E0082020E010201EE0202044
:100210001CE040201AE0802018E040F2001015E0B9
:100220000F498842EDD00F498842ECD00E498842F0
:10023000EBD00E498842EAD00D498842E9D00D49F9
:100240008842E8D00C498842E7D010460B4909683B
:1002500041EA000209490A6001B0704700FCFFFF53
:1002600000080140000C0140001001400014014052
:1002700000180140001C01400020014018100240FD
:1002800081B0CDF800E0012252B23E490A6000F28E
:1002900068010B686FF0006103EA0102144603F085
:1002A0000061C90E0B4602F00041B1F1004F02D1CE
:1002B00035490A6801E035490A6804F47021090CDF
:1002C0000E464FF6FF7104EA01010D4604F4401199
:1002D000B1F5401F0DD16FF0706102EA01010E46C9
:1002E0002A490A686FF070610A4028490A6032465C
:1002F00016E004F48011B1F5801F09D14FF003011D
:10030000B140C94302EA010141F070610A4607E0C9
:10031000610D090105FA01F1C9430A4042F070621A
:100320002BB1610D090105FA01F10A43FFE704F061
:100330000041B1F1004F02D113490A6001E01349B5
:100340000A6040F2000A81464FEA8A0109EB010186
:100350000968B1F1FF3F10D009F134014FEA8A0377
:10036000C91809680A4609EB0301096808461146DD
:10037000FFF7F4FE0AF1010AE6E7DDF800E001B05C
:10038000704700BF000342421C00014004000140CE
:1003900082B0CDF800E0034619460191FFF7D8FE80
:1003A00040F2E83100FB01F201990A601F49097827
:1003B000C1F30311C8B21E4909180878C0B21A1D4A
:1003C0001968C140116019490988C1F3022188B236
:1003D000174909180878C0B203F20802191D096804
:1003E000C140116011490988C1F3C22188B2104986
:1003F00009180878C0B203F20C02191D0968C1403F
:1004000011600A490988C1F3813188B20949091884
:100410000978C8B203F2100203F20C010968B1FBBB
:10042000F0F11160DDF800E002B070470410024006
:10043000CB150000DB15000081B0CDF800E08CB2D8
:100440001546774B00EA03031E461846FFF7D2FE17
:10045000B4F1FF0F0CD1734B9D4203D14FF03333F6
:100460003360D9E0422D03D14FF044333360D3E001
:100470004FF6FF739C4214D16A4B9D4207D14FF057
:1004800033333360341D4FF033332360C4E0422DE7
:1004900007D14FF044333360341D4FF044332360B1
:1004A000BAE00021002005F001030BB100211DE09E
:1004B00005F0020333B105F4C0730BB1082100E06D
:1004C000042113E005F0040333B105F020030BB160
:1004D000042100E0002109E005F0080333B105F034
:1004E00020030BB10C2100E00821FFE74E4B05EA89
:1004F00003030BB1032009E005F400730BB10220E4
:1005000004E005F480630BB10120FFE705F00C0364
:100510000BB10143FFE704F0FF039BB2002B3BD07C
:10052000376800201FFA84F832462E4608282CD25D
:100530004FF0010303FA00F408EA0403A34222D1B6
:1005400085004FF00F03AB40DB4307EA030401FAD9
:1005500005F344EA03031D4606F48173B3F5817F76
:1005600005D102F214044FF001038340236006F02A
:100570008203822B05D102F210044FF00103834065
:1005800023602F46FFE7401CD0E717601FFA88F072
:100590000F463146164602E00F462946A0B2B0F19A
:1005A000FF0F39D9331DD3F800800022082A30D23A
:1005B00002F208044FF0010303FA04F400EA040312
:1005C000A34224D195004FF00F03AB40DB4308EA70
:1005D000030807FA05F348EA030801F48173B3F549
:1005E000817F07D106F2140502F208044FF00103DF
:1005F000A3402B6001F08203822B07D106F2100585
:1006000002F208044FF00103A3402B60FFE7521CE5
:10061000CCE7331DC3F80080DDF800E001B070477F
:1006200000FCFFFF140008000008080089B0CDF8A6
:1006300000E0834698B28C46BDF824100A9E04ACB4
:10064000ADF80410ADF808002046FFF7A1FEBDF894
:100650000800BDF80410644CA34512D101256DB209
:10066000624C2560624D634C2560634D634C256090
:10067000634D644C2560644D644C2560079C039475
:1006800056E0634CA34512D101256DB2614C256043
:10069000614D584C2560614D584C2560604D594C5A
:1006A0002560604D594C2560069C039440E05E4CEB
:1006B000A34512D101256DB25C4C25605C4D4D4CBB
:1006C00025605C4D4D4C25605B4D4E4C25605B4D6F
:1006D0004E4C2560069C03942AE0594CA34512D148
:1006E00001256DB2574C2560574D424C2560574D42
:1006F000424C2560564D434C2560564D434C256079
:10070000069C039414E0544CA34511D101256DB20D
:10071000524C2560524D374C2560524D374C256068
:10072000514D384C2560514D384C2560069C039442
:10073000ADF80410ADF808003046FFF7A1FDBDF894
:100740000800BDF804100BF1100500242C600BF11B
:1007500010052C680C432C600BF10C0500242C6058
:1007600018B140F4806080B2FFE70BF10C052C68F3
:1007700004432C600BF10C060125346865F34D34FD
:1007800034600BF10C060125346865F3C304346052
:100790000BF10C060125346865F3820434600BF11B
:1007A000140500242C60039D192465434FEA8C0432
:1007B000B5FBF4F76424B7FBF4F42601350964248F
:1007C0006C433C1B240104F232056424B5FBF4F4B1
:1007D00004F00F0446EA04040BF10805A4B22C60EF
:1007E000DDF800E009B070470038014038034242AC
:1007F0000109000060000020FFFFFFFF64000020EF
:10080000FFFFFFFF68000020FFFFFFFF6C000020DC
:1008100000440040C4034242E5080000FFFFFFFF20
:10082000FFFFFFFFFFFFFFFF00480040C8034242F9
:1008300091080000FFFFFFFFFFFFFFFFFFFFFFFF2B
:10084000004C0040CC034242AD080000FFFFFFFF18
:10085000FFFFFFFFFFFFFFFF00500040D0034242B9
:10086000C9080000FFFFFFFFFFFFFFFFFFFFFFFFC3
:1008700081B0ADF800100146BDF800000B68C3F36D
:10088000C01202B9FAE70A1D106001B07047FFFFFD
:1008900081B0CDF800E081B20348FFF7E9FFDDF851
:1008A00000E001B0704700BF0048004081B0CDF8C3
:1008B00000E081B20348FFF7DBFFDDF800E001B0A4
:1008C000704700BF004C004081B0CDF800E081B21D
:1008D0000348FFF7CDFFDDF800E001B0704700BF2F
:1008E0000050004081B0CDF800E081B20348FFF72E
:1008F000BFFFDDF800E001B0704700BF00440040DA
:1009000081B0CDF800E081B20348FFF7B1FFDDF818
:1009100000E001B0704700BF0038014081B0CDF861
:1009200000E0019D2C4610B408B493B28AB201468F
:100930000348FFF77BFE02B0DDF800E001B070472E
:100940000044004081B0CDF800E0019D2C4610B479
:1009500008B493B28AB201460348FFF767FE02B0BB
:10096000DDF800E001B070470038014081B0CDF8FB
:1009700000E0044A89B2FFF75FFDDDF800E001B056
:10098000704700BF1400080081B0CDF800E04FF0C0
:10099000420289B2FFF750FDDDF800E001B0704778
:1009A00081B0CDF800E0019D2C4610B408B493B29C
:1009B0008AB201460348FFF739FE02B0DDF800E0D5
:1009C00001B070470048004001480068704700BF10
:1009D0002481224201480068704700BF20812242E2
:1009E00001480068704700BF1401214201480068B7
:1009F000704700BF1C81214201480068704700BF5A
:100A00001881214201480068704700BF28812242B6
:100A100001480068704700BF280122420148006871
:100A2000704700BF3481224201480068704700BF10
:100A30002C01224201480068704700BF000121429A
:100A400001480068704700BF300122420148006839
:100A5000704700BF1881224201480068704700BFFC
:100A60003081224201480068704700BF1481224251
:100A700001480068704700BF1C812142014800689E
:100A8000704700BF1881214201480068704700BFCD
:100A90003081224201480068704700BF38812242FD
:100AA00001480068704700BF0C01224201480068FD
:100AB000704700BF2801224201480068704700BF0C
:100AC0003001224201480068704700BF2C012242D9
:100AD00000F230031A6804490A6003F21C010A6834
:100AE00002490A60704700BF5400002058000020EF
:100AF00081B0CDF800E0094902B440F2000340F2B1
:100B0000000240F20001FFF709FF01B0044A054965
:100B10000A600020DDF800E001B07047D813000043
:100B2000E50800005000002081B0CDF800E0A9E009
:100B3000012905D140F210016548FFF725FF04E0C7
:100B400040F210016248FFF711FFBBE0012905D117
:100B500040F204015F48FFF717FF04E040F2040190
:100B60005C48FFF703FFADE0012905D142F2000127
:100B70005948FFF709FF04E042F200015648FFF729
:100B8000F5FE9FE0012905D140F200415148FFF7F1
:100B9000FBFE04E040F200414E48FFF7E7FE91E023
:100BA000012905D140F600014A48FFF7EDFE04E0B7
:100BB00040F600014748FFF7D9FE83E0012905D13F
:100BC00041F200014348FFF7DFFE04E041F200017B
:100BD0004048FFF7CBFE75E0012905D140F2010145
:100BE0003B48FFF7D1FE04E040F201013848FFF72F
:100BF000BDFE67E0012905D140F200413648FFF70C
:100C0000C3FE04E040F200413348FFF7AFFE59E075
:100C1000012905D140F200212F48FFF7B5FE04E07D
:100C200040F200212C48FFF7A1FE4BE0012905D13D
:100C300040F200112848FFF7A7FE04E040F200113F
:100C40002548FFF793FE3DE0012905D140F2400120
:100C50002248FFF799FE04E040F240011F48FFF7E9
:100C600085FE2FE0012905D140F280011B48FFF7E6
:100C70008BFE04E040F280011848FFF777FE21E088
:100C8000012020E000283FF453AF01283FF45EAF7D
:100C900002283FF469AF03283FF474AF04283FF4FF
:100CA0007FAF05283FF48AAF06283FF495AF0728A9
:100CB000A0D00828ACD00928B8D00A28C4D00B2866
:100CC000D0D0DDE70020DDF800E001B0704700BFC4
:100CD000000801400010014000140140000C0140D8
:100CE00081B0CDF800E00178CCB2A0B2034C24680A
:100CF000A0470020DDF800E001B070475000002060
:100D000081B0CDF800E0A9E0012905D140F2200131
:100D10006548FFF739FE04E040F220016248FFF722
:100D200025FEBBE0012905D140F208015F48FFF72D
:100D30002BFE04E040F208015C48FFF717FEADE02F
:100D4000012905D144F200015948FFF71DFE04E0D6
:100D500044F200015648FFF709FE9FE0012905D142
:100D600040F200415148FFF70FFE04E040F200411D
:100D70004E48FFF7FBFD91E0012905D140F6000147
:100D80004A48FFF701FE04E040F600014748FFF73C
:100D9000EDFD83E0012905D141F200014348FFF751
:100DA000F3FD04E041F200014048FFF7DFFD75E08C
:100DB000012905D141F200013D48FFF7E5FD04E0BE
:100DC00041F200013A48FFF7D1FD67E0012905D162
:100DD00040F600013648FFF7D7FD04E040F6000179
:100DE0003348FFF7C3FD59E0012905D140F2400126
:100DF0002F48FFF7C9FD04E040F240012C48FFF7FF
:100E0000B5FD4BE0012905D140F220012848FFF74C
:100E1000BBFD04E040F220012548FFF7A7FD3DE0BF
:100E2000012905D140F240012248FFF7ADFD04E061
:100E300040F240011F48FFF799FD2FE0012905D13D
:100E400040F280011B48FFF79FFD04E040F2800163
:100E50001848FFF78BFD21E0012020E000283FF437
:100E600053AF01283FF45EAF02283FF469AF032877
:100E70003FF474AF04283FF47FAF05283FF48AAFF6
:100E800006283FF495AF0728A0D00828ACD0092841
:100E9000B8D00A28C4D00B28D0D0DDE70020DDF878
:100EA00000E001B0704700BF0008014000100140A1
:100EB00000140140000C014081B0CDF800E0094968
:100EC00002B440F2000340F2000240F20001FFF7DA
:100ED00067FD01B0044A05490A600020DDF800E022
:100EE00001B0704744140000910800005000002039
:100EF00081B0CDF800E0094902B440F2000340F2AD
:100F0000000240F20001FFF71DFD01B0044A05494F
:100F10000A600020DDF800E001B07047B014000066
:100F2000010900005000002081B0CDF800E009491F
:100F300002B440F2000340F2000240F20001FFF769
:100F4000EDFC01B0044A05490A600020DDF800E02C
:100F500001B07047D8130000E508000050000020E1
:100F600001480068704700BF100121420148006835
:100F7000704700BF0801224244F67F77C0F2120793
:100F80007F1EFDD100BF00BF00BF00BF00BF704784
:100F900081B0CDF800E0034C2468A047DDF800E004
:100FA00001B070475400002081B0CDF800E011E09E
:100FB0000846FFF781FF16E00846FFF7B5FF12E08D
:100FC0000846FFF795FF0EE00846FFF791FD0AE09F
:100FD000012008E00028EBD00128EDD02028EFD038
:100FE0003028F1D0F4E7DDF800E001B07047FFFFF2
:100FF00081B0CDF800E0FFF76BFDDDF800E001B057
:101000007047FFFF83B0CDF800E0024610460D2286
:101010008DF808200A228DF809201FE0FFF760FEF6
:1010200023E002782AB10190FFF75AFE0198401C94
:10103000F7E71AE002782AB10190FFF751FE019814
:10104000401CF7E702AA1046FFF74AFE0DF109021D
:101050001046FFF745FE08E0062007E00029DDD036
:101060000129DED00229E5D0F6E70020DDF800E016
:1010700003B0704781B0CDF800E05FFA81F95FFA04
:1010800082FA0FE05FFA8AF15FFA89F0FFF74CFD10
:101090000DE05FFA8AF15FFA89F0FFF731FE06E0B2
:1010A000012004E00028EDD00128F2D0F8E7DDF8B7
:1010B00000E001B07047FFFF81B0CDF800E00122F1
:1010C00007210020FFF7D6FF012200210020FFF7B3
:1010D000D1FF42F280510120FFF766FFFFF74CFF7E
:1010E000DDF800E001B0704781B0CDF800E00A48BB
:1010F000FFF77EFF09480221FFF784FF084802211D
:10110000FFF780FF07480221FFF77CFFFFF734FF5E
:10111000DDF800E001B070471C1500000000002061
:10112000100000202000002081B01548006840F029
:101130000101134801601349134801601048016818
:10114000124801400E4801600D4801686FF480208C
:1011500001400B4801600C4801686FF4FE0001403B
:1011600009480160064801686FF0A050014004483A
:1011700001604FF000010648016001B0704700BFF8
:10118000001002400000FFF004100240FFFFF6FED6
:101190002C10024081B04FF000094FF0000CBDEB65
:1011A0000A0F04DCBDEB0B0F01DBD446EA464BF81B
:1011B000049BBBEB0A0FFAD1BCEB0A0F05DDE2463C
:1011C000D9F800B00BF1040BF1E701B07047FFFF55
:1011D00081B0CDF800E0FFF7DBFE1449087001286C
:1011E0000DD11348007850B912480221FFF70AFFC9
:1011F00011480221FFF706FF01210D4801700B483D
:10120000007870B90A48007801280AD10B480221F9
:10121000FFF7F8FE0A480221FFF7F4FE0021044818
:101220000170DDF800E001B0704700BF3000002021
:101230003100002032000020410000204200002048
:101240004E00002081B01CF8019B0BF8019BBBEB0A
:101250000A0FF8D101B0704781B0FEE701B07047C6
:1012600081B002490248016001B070474019010095
:101270005C00002000F00EF800F0F2F9FFF7F0FF3C
:1012800000F0AEF9FFF718FFFFF72EFFFFF7A0FF02
:10129000FCE7FEE781B0CDF800E0464A464B474CFC
:1012A00047494BF68030814206D94648006840F0F5
:1012B00002014448016011E045F6C050814206D960
:1012C0004048006840F001013E48016006E03D48AA
:1012D00001686FF0070001403A480160FFF724FF02
:1012E0003948036039480460394802EA0001394846
:1012F000016002F0010040B119463648006800F074
:101300000200002800D1F8E700E0194602F480301E
:1013100040B10B462F48006800F40030002800D18F
:10132000F8E700E00B4602F0805068B129480068F9
:1013300040F08051274801602648006800F00050C6
:10134000002800D1F8E7FFE702F0806078B121487B
:10135000006840F080611F48016011461A461D4830
:10136000006800F00060002800D1F8E701E01146B5
:101370001A4601F0807070B11648006840F0807124
:101380001448016011461348006800F0007000B96D
:10139000F9E70A46FFE70C48006800F00C019000EE
:1013A00000F00C00814200D0F5E7DDF800E001B06C
:1013B000704700BF8100010502841D004406010042
:1013C0004019010000200240041002402C1002408D
:1013D000FFFF0F0000100240350000003600000043
:1013E000FFFFFFFF00000000000000000000000001
:1013F00000000000000000000000000000000000ED
:1014000000000000000000000000000018080000BC
:1014100018000000000000000000000000000000B4
:1014200000000000000000000000000000000000BC
:1014300000000000000000000000000000000000AC
:10144000080000083800000039000000FFFFFFFF1F
:10145000000000000000000000000000000000008C
:10146000000000000000000000000000000000007C
:101470000000000000000000180800001800000034
:10148000000000000000000000000000000000005C
:10149000000000000000000000000000000000004C
:1014A00000000000000000000000000030001408F0
:1014B000090000000A000000FFFFFFFF000000001D
:1014C000000000000000000000000000000000001C
:1014D000000000000000000000000000000000000C
:1014E00000000000180800001800000000000000C4
:1014F00000000000000000000000000000000000EC
:1015000000000000000000000000000000000000DB
:10151000000000000000000004000000FFFFFFFFCB
:10152000FFFFFFFFFFFFFFFFFFFFFFFFFFFFFFFFCB
:10153000FFFFFFFFFFFFFFFFFFFFFFFFFFFFFFFFBB
:10154000FFFFFFFFFFFFFFFFFFFFFFFF610F000037
:101550006D0F00001D0A0000110A0000290A00009A
:10156000410A0000350A0000050A0000C909000010
:10157000D5090000F9090000ED0900002D2D2D2DE1
:101580002D2D2D2D2D2D2D2D2D2D2D002020466C7A
:10159000616D6520436C69636B2020002D2D2D2D1E
:1015A0002D2D2D2D2D2D2D2D2D2D2D00000120200B
:1015B0007E2020464C414D452020207E00002020EA
:1015C000204E4F20464C414D4500000000000001D8
:1015D000020304010203040607080902040608FFC7
:1015E00000B5DFF814B0DFF814A0DFF814C0FFF77F
:1015F00029FE00BD704700BF000000204F00002002
:101600007C150000FFFFFFFFFFFFFFFFFFFFFFFF55
:10161000FFFFFFFFFFFFFFFFFFFFFFFFFFFFFFFFDA
:10162000FFFFFFFFFFFFFFFFFFFFFFFFFFFFFFFFCA
:10163000FFFFFFFFFFFFFFFFFFFFFFFFFFFFFFFFBA
:10164000FFFFFFFFFFFFFFFFFFFFFFFFFFFFFFFFAA
:10165000FFFFFFFFFFFFFFFFFFFFFFFFFFFFFFFF9A
:1016600000B5DFF810B0DFF810A0FFF793FD00BD64
:10167000704700BF0000002070000020FFFFFFFF48
:00000001FF
